:020000040800F2
:10000000780600202D02000835020008370200089B
:10001000390200083B0200083D0200080000000011
:100020000000000000000000000000003F02000887
:1000300041020008000000004302000845020008D9
:10004000470200084702000847020008470200086C
:10005000470200084702000847020008470200085C
:10006000470200084702000847020008470200084C
:10007000470200084702000847020008470200083C
:10008000470200084702000847020008470200082C
:10009000470200084702000847020008470200081C
:1000A000470200084702000847020008470200080C
:1000B000470200080000000000000000470200089E
:1000C000470200080000000000000000470200088E
:1000D000000000004702000847020008000000007E
:1000E000470200084702000800000000000000006E
:1000F0000000000000000000000000000000000000
:10010000000000000000000000000000470200089E
:10011000000000000000000047020008470200083D
:10012000470200084702000847020008470200088B
:10013000470200080000000000000000000000006E
:10014000470200084702000847020008470200086B
:10015000470200084702000847020008470200085B
:10016000470200084702000847020008000000009C
:1001700047020008470200080000000000000000DD
:1001800047020008470200084702000800F002F892
:1001900000F03CF80AA090E8000C82448344AAF1E5
:1001A0000107DA4501D100F031F8AFF2090EBAE8E3
:1001B0000F0013F0010F18BFFB1A43F0010318479B
:1001C0001403000034030000103A24BF78C878C13B
:1001D000FAD8520724BF30C830C144BF04680C604D
:1001E000704700000023002400250026103A28BF95
:1001F00078C1FBD8520728BF30C148BF0B60704799
:100200001FB500F059F91FBD10B510BD00F031F851
:100210001146FFF7F5FF00F0F1F800F04FF803B4D6
:10022000FFF7F2FF03BC00F057F8000009488047D1
:1002300009480047FEE7FEE7FEE7FEE7FEE7FEE7C8
:10024000FEE7FEE7FEE7FEE704480549054A064BE0
:1002500070470000E90200088D01000878000020C6
:10026000780600207802002078020020704770474E
:100270007047754600F02CF8AE46050069465346B7
:1002800020F00700854618B020B5FFF7DDFFBDE878
:1002900020404FF000064FF000074FF000084FF0ED
:1002A000000B21F00701AC46ACE8C009ACE8C0097E
:1002B000ACE8C009ACE8C0098D46704710B50446EB
:1002C000AFF300802046BDE81040FFF7A8BF000054
:1002D000004870471800002001491820ABBEFEE717
:1002E00026000200704700001048006840F47000CB
:1002F0000E4908600E48006840F001000C49086093
:1003000000208860084600680A49084008490860DB
:100310008814C8600846006820F480200860002027
:100320008861C803014980390860704788ED00E0A2
:1003300000100240FFFFF6EAF0B58AB0FF242D4F0F
:10034000E1CF06A9E1C10F204FF09045A8822846D1
:10035000008A00F0010003902846008A00F00200A5
:1003600004902846008A00F004000590DDE90305AA
:10037000A84201D1012000E00020059DA84201D142
:10038000012000E00020012802D166200AB0F0BD63
:10039000002206E003A850F8220000B91346501CC2
:1003A000C2B2032AF6DB002120E006A830F82100C3
:1003B0004FF09045A8822846008A00F00100009086
:1003C0002846008A00F0020001902846008A00F0CA
:1003D000040002905DF8230030B901EB4100064DA6
:1003E0002844C45C2046D1E7481CC1B20429DCDBA8
:1003F0006620CBE7C4040008000000201848C06C49
:1004000040F001001649C8644FF0904000686FF357
:100410000D004FF0904108600846006840F055001C
:1004200008600846808840F00F0088800C48C06C47
:1004300040F002000A49C8640A48006840F005001C
:10044000084908600A250AE0FFF776FF0446A5423E
:1004500005D0662C03D0204600F006F82546F3E7C9
:10046000001002400004004810490968062906D11E
:100470000F49098841F001010D4A118070470D496B
:100480000A4A1268895C814202D00021074A116041
:100490000849064A1268895C814204D10349096807
:1004A000491C024A116000BFE8E700001400002068
:1004B000140400480C0000204FF04070E1EE100AD8
:1004C00070470000070000000B0000000D00000056
:1004D0000E000000F40400080000002018000000D6
:1004E000C80100080C050008180000206006000084
:1004F000E40100083132333435363738392A3023B5
:0C050000010203040506000000000000DA
:040000050800022DC0
:00000001FF
